:020000040002F8
:1060000050870020C1630200C9630200CB63020015
:10601000CD630200CF630200D163020000000000E4
:10602000000000000000000000000000D363020038
:10603000D563020000000000D7630200D9630200AC
:1060400045760200DB6302006D860200017F0200DC
:10605000157F0200DB63020035710200457C0200FF
:10606000DB6302009D830200DB630200DB6302004E
:10607000DB630200DB630200DB630200DB63020020
:106080007D860200FD7B0200DB630200DB63020011
:10609000297F0200DB630200317F0200DB63020024
:1060A000DB630200DB630200DB630200DB630200F0
:1060B000DB630200DB630200000000000000000060
:1060C000DB630200DB630200DB630200DB630200D0
:1060D000317C0200DB630200DB6302000000000091
:1060E00000000000000000000000000000000000B0
:1060F00000000000000000000000000000000000A0
:10610000000000000000000000000000000000008F
:10611000000000000000000000000000000000007F
:10612000000000000000000000000000000000006F
:10613000000000000000000000000000000000005F
:10614000000000000000000000000000000000004F
:10615000000000000000000000000000000000003F
:10616000000000000000000000000000000000002F
:10617000000000000000000000000000000000001F
:10618000000000000000000000000000000000000F
:1061900000000000000000000000000000000000FF
:1061A00000000000000000000000000000000000EF
:1061B00000000000000000000000000000000000DF
:1061C00000000000000000000000000000000000CF
:1061D00000000000000000000000000000000000BF
:1061E00000000000000000000000000000000000AF
:1061F000000000000000000000000000000000009F
:10620000DFF80CD000F008FF0048004759F6020004
:106210005087002030B450E8012F93B2C489234442
:106220008489A34228BF1B1B0489A34202BFBFF37A
:106230002F8F002007E0C3EA020340E80134002C5E
:10624000E9D14FF001000A6030BC704750E8012FDF
:10625000C2EA024240E801210029F7D1704730B478
:1062600050E8022F1FFAA2F3C488A34202BFBFF373
:106270002F8F00200DE0C48923448489A34228BFC6
:106280001B1BC2EA034340E80234002CE8D14FF064
:1062900001000A6030BC704750E8022FC2EA224277
:1062A00040E802210029F7D17047034653E8022F46
:1062B000D988B2EB324F4FF0000017BF92B241EADB
:1062C000014142EA014104E05A68B2EB324F08BF93
:1062D000012043E80212002AE8D1704730B4044696
:1062E00054E8000F0D4644E80053002BF8D1156028
:1062F00030BC704730B4044654E8000F40EA010552
:1063000044E80053002BF7D1156030BC704730B41F
:10631000044654E8000F00EA010544E80053002B4E
:10632000F7D1156030BC704730B4044654E8000F14
:1063300080EA010544E80053002BF7D1156030BC1A
:10634000704730B4044654E8000F00EB010544E800
:106350000053002BF7D1156030BC704730B40446B1
:1063600054E8000FA0EB010544E80053002BF7D1DF
:10637000156030BC704770B404464FF0000054E81C
:10638000006F0D68AE4207BF44E80023012044E8D7
:1063900000630E60002B1CBF0020F0E770BC70474C
:1063A00030B4044654E8000F88422CBF451A054615
:1063B00044E80053002BF5D1156030BC7047000055
:1063C0000648804706480047FEE7FEE7FEE7FEE78F
:1063D000FEE7FEE7FEE7FEE7FEE7FEE7FD800200E0
:1063E000016202002DE9F05F0546002092469B46BF
:1063F00088460646814640241BE0284641464746DB
:10640000224600F079FC53465A46C01A914110D3F7
:1064100011461846224600F016F82D1A67EB0108BF
:106420004F4622460120002100F00DF817EB00092D
:106430004E41201EA4F10104DFDC484631462A46C5
:106440004346BDE8F09F202A04DB203A00FA02F11F
:10645000002070479140C2F1200320FA03F3194352
:106460009040704700487047EC7F030010B5044629
:10647000FFF7F8FF0068005D00F0010010BD40EA82
:1064800001039B0703D009E008C9121F08C0042AB2
:10649000FAD203E011F8013B00F8013B521EF9D299
:1064A0007047D2B201E000F8012B491EFBD27047C1
:1064B0000022F6E710B513460A4604461946FFF7D0
:1064C000F0FF204610BD30B505462A460B4612F8AF
:1064D000010B13F8014B08B1A042F8D01CB1002801
:1064E00002D06D1CF1E7284630BD421C10F8011B9C
:1064F0000029FBD1801A704730B5044600200346BE
:1065000000E05B1C934203D2E05CCD5C401BF8D002
:1065100030BD034611F8012B00F8012B002AF9D1F8
:10652000184670472DE9FF4F087883B09946FF2839
:1065300005D0491C2D2804D00024002008E00020AC
:106540000BE00124F9E700EB800003EB4000491C5D
:106550000B78FF2BF7D104B140420023029314784B
:1065600019461D462D2C01D02B2C04D1521C2D2C4C
:1065700013D000240294AA461478FF2C0FD00A25C9
:10658000A3FB057801FB05814FF0000C03FB0C1108
:10659000521CE3194AEB0101EEE70124EAE78144CA
:1065A00053EA010002D019F5C87F06DA03980021EA
:1065B000C0E9001107B0BDE8F08F0025AE4E2F46B0
:1065C000DFF8B882184600F003FDCDE90001B9F10B
:1065D000000002DAC9F1000400E004460023A74AE3
:1065E0001AEB030B42EB045A12E0E00707D02A46ED
:1065F00033463846414600F0ECF9074688462A46BD
:1066000033461046194600F0E4F905460E4664107C
:10661000002CEAD1DDE90001B9F1000F5A465346DA
:1066200006DA00F048FA3A46434600F044FA05E03C
:1066300000F0CFF93A46434600F0CBF9029A0AB18E
:1066400081F00041039AC2E90001B3E72DE9FF4F51
:106650001F468DB0D7E901464FF0FF382E20454642
:106660004FF000090B90B9696D1C0E988847396A84
:10667000824688470028F6D1BAF1FF3F0AD024F4B9
:10668000D064002E11DDBAF12B0F08D0BAF12D0F16
:106690000BD102E0404611B08DE744F48064B96943
:1066A0006D1C0E9888478246761E6946600501D5A6
:1066B0002D2000E02B208DF8000001F1010B0DF1E1
:1066C000200809E0B9696D1C0E98884782460F982A
:1066D00044F40074761E0560002E02DDBAF1300F1E
:1066E000F0D00B998A453ED144F0800406E00F9922
:1066F000681CA9F1010944F400740860B9696D1CB3
:10670000761E0E98884782463028F0D02BE00B99F1
:106710008A4505D1200603D444F08004761E18E093
:10672000504603F00BFC08B30DF11301761E44F440
:1067300000748B4508D2AAF130000BF8010B20063B
:1067400007D5A9F1010003E0200602D409F10100F8
:106750008146A00502D50F99681C0860B9696D1CB7
:106760000E9888478246002ED1DC53E0002E51DD82
:10677000BAF1650F02D0BAF1450F4BD1A00549D54A
:10678000B9696D1C24F44074761E0E9888478246C1
:10679000002E0CDD2B2804D0BAF12D0F07D144F4C4
:1067A0008074B9696D1C0E9888478246761EE00594
:1067B00001D52D2100E02B2108F8011BCDF82C80FC
:1067C00021E00DF12901761E44F4007488450CD2B5
:1067D000AAF1300010F0FF0088F8000002D10B99F8
:1067E000884509D908F1010806E0E00501D52448EB
:1067F00001E042F20F708146B9696D1C0E9888471E
:1068000082460F980560002E04DD504603F096FB8B
:106810000028D6D1F9690E988847FF208BF8000030
:1068200088F800000020069007904B466A4608A9A9
:1068300006A8FFF777FEA00502D46FF001002AE753
:1068400014F0240F0AD0E00714D1DDE906123868ED
:10685000031D3B600068C0E900120BE0DDE90601A2
:1068600000F018FA0146E00704D13868021D3A60CA
:106870000068016028460EE7000014400000F03F69
:10688000F1D8FFFF2DE9FE4F804681EA0300C00FDB
:106890000C46009021F0004123F00045B8EB0200C7
:1068A000A94105D24046214690461C460B46024669
:1068B00023F00040104347D0270DC7F30A00C3F36D
:1068C0000A510290401A019040286BDAC3F313007A
:1068D00040F4801B0098924620B10023D2EB030ABB
:1068E00063EB0B0B01985946C0F140025046FFF78D
:1068F000AAFD06460D4650465946019A00F00CFA8C
:1069000010EB08006141002487EA115284EAE77322
:106910001A4340D0009A62B3019A012A4FEA075203
:1069200015DC001B61EB02014FF0004202EA075246
:10693000CDE90042001C41F5801132462B4600F0A3
:1069400091FA03B0BDE8F08F40462146F9E7001BFD
:1069500061EB0201001C41F5801300185B41201817
:10696000A2F5001747EB030140EAD570B6196D4157
:1069700011E06D084FEA360645EAC0754FEA075246
:10698000001B61EB0201001C41F5801149084FEA30
:1069900030000019514132462B4603B0BDE8F04F9C
:1069A00000F051BA0098012240000023D0EB02020F
:1069B00063EBE073009821464FEAE074B8EB000007
:1069C00061EB0401E9E783F000435BE781F00041FC
:1069D00058E72DE9FE4F81EA030404F0004421F05A
:1069E000004100944FF0000B23F0004350EA0104F3
:1069F0005ED052EA03045BD0C3F30A54C1F30A55D4
:106A00002C44A4F2F3340194A0FB0254C1F313010B
:106A100041F48011C3F3130343F4801301FB0244D8
:106A200000FB034E840A970A44EA815447EA8357DD
:106A3000A4FB076802958D0A05FB07854FEA932C96
:106A400004FB0C542705029D4FEA065847EA163707
:106A5000B5EB08056EEB070C870E920E47EA81171F
:106A600042EA8312A7FB0201B6EB0B0164EB0004C0
:106A70002B0D43EA0C335E1844EB1C50DA465146AA
:106A8000E7FB0201C5F313044FEA0B3343EA145347
:106A90004FEA0432019C43EA0603A4F10C04029479
:106AA000009CCDE900B400F0DDF903B0BDE8F08F43
:106AB00000200146F9E72DE9F04D81EA030404F0D6
:106AC000004B21F0004514464FF0000A23F000412E
:106AD00050EA050220D054EA01021DD0C5F30A573E
:106AE0000246C5F31303C1F31300C1F30A5640F481
:106AF000801543F48013A7EB0608101BD64608F256
:106B0000FD3873EB050002D308F1010801E092188B
:106B10005B41B8F1000F03DA00200146BDE8F08DBB
:106B200000204FF48011064684460EE0171B73EBDD
:106B3000050705D3121B63EB050306434CEA010C62
:106B400049084FEA300092185B4150EA0107EDD145
:106B500052EA030012D082EA040083EA05010843E6
:106B600005D0101BAB4106D20122002306E0002213
:106B70004FF0004302E06FF0010253101AEB0600E1
:106B80004CEB085110EB0A0041EB0B01BDE8F04D56
:106B900000F059B90EB5C10F80EAE0700844CA0789
:106BA000002140F233438DE80E000A460B4600F008
:106BB00059F903B000BD0EB540F2334102910021F6
:106BC000CDE900110A460B4600F04CF903B000BDB8
:106BD00070B5C1F30A5201F000450024C1F313015E
:106BE00040F2FF3341F480119A4201DA002070BD77
:106BF00040F233439A42A2F2334203DC524200F0A5
:106C00007BF800E090402C43F1D0404270BD00F092
:106C1000004230F000400AD0C10D01F56071C0F3B0
:106C2000160042EA0151C208400711437047002094
:106C30000146704730B5041E71F1000404DB4FF0CB
:106C40000044404264EB0101141E73F1000405DBB3
:106C50001C464FF00043524263EB04038B4208BFD3
:106C6000824230BD30B5041E71F1000404DB4FF0E8
:106C70000044404264EB0101141E73F1000405DB83
:106C80001C464FF00043524263EB0403994208BF95
:106C9000904230BD01F0004330B421F0004150EA91
:106CA000010206D00A0DA2F56072C1F31301002A99
:106CB00002DC30BC00207047440F44EAC104C1002C
:106CC000E01830BC00EBC25000F086B830B50B467F
:106CD000014600202022012409E021FA02F59D420C
:106CE00005D303FA02F5491B04FA02F52844151EE0
:106CF000A2F10102F1DC30BD202A04DB203A21FAA6
:106D000002F00021704721FA02F3D040C2F12002C4
:106D10009140084319467047202A06DBCB17203ADA
:106D200041FA02F043EAE07306E041FA02F3D04090
:106D3000C2F1200291400843194670470FB4002366
:106D400000B589B00CA900910B996FF00042CB609F
:106D50001E4B06931E4B07930423CDE901321D4AB7
:106D6000089202466B460020FFF770FC09B05DF800
:106D700014FB70B586B006464FF0FF300091CDE9A8
:106D80000101002015460C4604903246694604A8CD
:106D9000FFF7D4FF02460498211825B108B1084630
:106DA00000E020462860049800280DD0002A02DD6B
:106DB0000098884208D0081B0094CDE901043246AF
:106DC000694604A8FFF7BAFF06B070BD3D70020027
:106DD0005B7002006D6402000029A8BF7047401C70
:106DE000490008BF20F00100704710B4B0FA80FCE1
:106DF00000FA0CF050EA010404BF10BC704749B11E
:106E0000CCF1200421FA04F411FA0CF118BF01218D
:106E100021430843A3EB0C01CB1D4FEA00614FEA6D
:106E2000102042BF002010BC704700EBC35010443C
:106E30000029A4BF10BC7047401C490008BF20F0C7
:106E4000010010BC704710B5141E73F1000408DA7D
:106E5000401C41F1000192185B411A4301D120F01E
:106E6000010010BD2DE9F04D92469B4611B1B1FADB
:106E700081F202E0B0FA80F220329046FFF7E3FAA6
:106E800004460F4640EA0A0041EA0B0153465A46BF
:106E9000084313D0114653EA010019D0C8F140024B
:106EA0005046FFF729FF05460E46504659464246D2
:106EB000FFF7C9FA084305D0012004E0204639460F
:106EC000BDE8F08D0020054346EAE0762C433743C9
:106ED0000A986305E40AA0EB08000022FD0A44EAD0
:106EE00047540A3002D500200146E9E70105101990
:106EF0006941DDE9084500196941BDE8F04DA2E7A7
:106F000070B521F0004303430CD0C1F30A550024AF
:106F1000D5EB040564EB0403D617AD1AB34102DBCD
:106F20000020014670BD201841EB025170BD2DE9D3
:106F3000F04D00231A461B1A8A4103DB002001464C
:106F4000BDE8F08DC1F30A52C1F3130141F480157D
:106F50004FF0000BD10702D100186D41521E0027DF
:106F6000044640F2FF11384601EB620A3E46804675
:106F7000024600204FF48011FFF7BEFEC219714196
:106F8000BB1846EB0100B4EB030C75EB000C04D30B
:106F9000E41A65EB000517460E46241908F10100B6
:106FA0006D4180463428E3DDF91946EB0600091BE4
:106FB000A84103D24FF0FF32134601E000221346EE
:106FC0001BEB070046EB0A51BDE8F04DFFF73BBF56
:106FD0000EB540F2334202920022CDE90022134660
:106FE000FFF740FF03B000BDC1F30A52C1F3130124
:106FF00040F2FF3341F480119A4202DA0020014648
:10700000704740F233439A42A2F2334202DC5242CA
:10701000FFF772BEFFF717BA064C074D06E0E068AF
:1070200040F0010394E8070098471034AC42F6D3CF
:10703000FFF7EAF82489030044890300426842B15B
:10704000016811F8013B23B1521EC0E90012184635
:1070500070470121C160881E704742685AB1C368F9
:10706000016843B983688B4205D0491E521CC0E9B0
:107070000012002070474FF0FF30704770B58C1839
:1070800010F8015B15F0070301D110F8013B2A113C
:1070900006D110F8012B03E010F8016B01F8016B29
:1070A0005B1EF9D12B0705D40023521E0DD401F825
:1070B000013BFAE710F8013BCB1A921C03E013F8EE
:1070C000015B01F8015B521EF9D5A142D8D3002023
:1070D00070BD2DE9F84306460F4615461C46DDF8FF
:1070E0002080611C6143C80008F096FB81462B4656
:1070F0003A4631464846009400F02AF9214648466F
:1071000000F0CAFA00250CE0601C684309EBC000DF
:1071100000EBC40090ED000B88ED000B6D1C08F136
:107120000808A542F0DB484607F04AF80020BDE811
:10713000F88300002DE9F04F89B000270020089067
:107140004FF4807007900126002412E007980AF09F
:1071500019F840B100BF7B480068304018B107986B
:107160000AF002F8374376000798001D80B20790B6
:10717000641C082CEAD34FF4BE700AF003F850B137
:107180004FF4BE7009F0F0FF47F0004708AA012154
:10719000002009F0CFFFF8B200B3012600241BE065
:1071A00006EA0700B0B100BF674850F82400C0F3FA
:1071B0000420804600BF644850F82400C0F301401A
:1071C0008146204605F0DEF9054615B149464046A0
:1071D000A84700BF7600641C082CE1D307F00040EC
:1071E00000287DD0002006900590002505E04FF096
:1071F000FF3004A941F825006D1C002DF7D000BF19
:107200000020069000245FE05048005D0390039842
:1072100020F0C0094D480057401C002853D004A955
:10722000484608F00AFE00284DD003984FEA901A0D
:10723000484605F0AFF9804605F0A4F9029002989F
:1072400010B9BAF1030F3DD1BAF1030F03D105A96B
:10725000484608F0FDFD00BF00BF4FF0A0410846C2
:1072600000F5E06151F82910C1F3014800BF08A9F9
:10727000484608F0E2FD8346BBF1000F02D0B8F1AA
:10728000020F05D0BBF1000F1BD1B8F1030F18D1CD
:10729000BAF1030F0FD1B8F1020F01D1032000E0C2
:1072A000022001904846019909F088FE0698401C8A
:1072B000C0B2069000BF029818B151464846029AE3
:1072C000904700BF00BF641C042C9DD3069888B370
:1072D0004FF0010803AA0121002009F02BFF00E074
:1072E0002DE000250BE003A850F8250008A951F86F
:1072F0002510884202D04FF0000802E06D1C002DDE
:10730000F1D000BFB8F1000F02D00020069010E0CD
:1073100000250CE003A850F8250008A941F8250035
:1073200005A850F8250004A941F825006D1C002D82
:10733000F0D000BF069800287FF462AF00BF09B00C
:10734000BDE8F08F04630040106500400C3300205E
:107350002DE9F0472DED068B074688469246994663
:107360000E9C00253EE09FED800B002007EBC00047
:1073700000EBC50080ED000B002630E0611EC5EB80
:107380004100FFF707FC41EC190B08EBC60090ED3C
:10739000001BB0EE410AF0EE610AB0EE491AF0EEC1
:1073A000691A01F0EDFCB0EE408AF0EE608A002030
:1073B00007EBC00000EBC50090ED001BB0EE410AEA
:1073C000F0EE610A53EC102B51EC180BFFF75AFA50
:1073D000002207EBC20202EBC50203C2761C4E4537
:1073E000CCDB6D1CA542BEDB012543E09FED5E0BAF
:1073F000601C684307EBC001601E01EBC00080ED1C
:10740000000B002633E0611E481BFFF7C3FB41EC75
:10741000190B08EBC60090ED001BB0EE410AF0EE30
:10742000610AB0EE491AF0EE691A01F0A9FCB0EE5B
:10743000408AF0EE608A601C684307EBC001601E62
:1074400001EBC00090ED001BB0EE410AF0EE610AC6
:1074500053EC102B51EC180BFFF714FA621C6A4323
:1074600007EBC203621E03EBC20203C2761C4E4549
:10747000C9DB6D1CA542B9DB002550E09FED3A0B3E
:10748000601C684307EBC00000EBC40080ED000BFC
:10749000002641E0611E481BFFF77CFB41EC1A0B04
:1074A00008EBC60090ED001BB0EE410AF0EE610A59
:1074B000B0EE4A1AF0EE6A1A01F062FCB0EE409AA1
:1074C000F0EE609A0AEBC60090ED001BB0EE410AA8
:1074D000F0EE610A53EC102B51EC190BFFF779FA1F
:1074E00041EC180B601C684307EBC00000EBC400C4
:1074F00090ED001BB0EE410AF0EE610A53EC102B48
:1075000051EC180BFFF7BEF9621C6A4307EBC2028D
:1075100002EBC40203C2761C4E45BBDB6D1CA542C8
:10752000ACDB012518E0002612E0681E611C484310
:1075300007EBC001701C01EBC00090ED000B601C5C
:10754000684307EBC00000EBC60080ED000B761C23
:10755000601EB042E9DC6D1CA542E4DB0020BDECFE
:10756000068BBDE8F087000000000000000000006E
:1075700010B500225421FE2000F036FD1F22972175
:107580000C2000F031FD00224021062000F02CFDEF
:1075900010BD000000F01F0201219140024A430982
:1075A00042F823107047000080E200E000F01F0264
:1075B000012191404209920002F1E022C2F800113B
:1075C0007047000000F01F0201219140024A430968
:1075D00042F823107047000000E200E010B50028D8
:1075E00007DA4A07140E054A00F00F031B1FD45494
:1075F00003E04A07130E024A135410BD18ED00E0D1
:1076000000E400E000BF00BF00BFBFF34F8F00BF2A
:1076100000BF00BF0948006800F4E0600849084363
:10762000001D0649086000BF00BF00BFBFF34F8FB9
:1076300000BF00BF00BF00BF00BFFDE70CED00E0D2
:107640000000FA0510B54FF4807008F054FD80B1C9
:107650004FF4807008F058FD012008F05FFD0D48E0
:10766000407930B901200B49487108460168002073
:1076700088474FF4827008F03EFD50B14FF482709D
:1076800008F042FD022008F049FD0248016801208F
:10769000884710BD402C002070B504460D46294691
:1076A000204600F09DFA2946204600F0F1F92946CF
:1076B000204600F095FA2946204600F012F810B155
:1076C0004FF0FF3070BD2946204600F089FA294668
:1076D000204600F019F810B14FF0FF30F2E700201B
:1076E000F0E770B506460D462C4609E022462946CD
:1076F000304600F06DF810B14FF0FF3070BD641EE1
:10770000002CF3D10020F9E770B506460D460024A1
:1077100009E022462946304600F01EF910B14FF02C
:10772000FF3070BD641CAC42F3DB002444E0681CF5
:10773000604306EBC00000EBC40090ED001BB0EE10
:10774000410AF0EE610A9FED1E1B53EC112B51EC28
:10775000100BFFF76FFA2ED0681C604306EBC000D9
:1077600000EBC40090ED002BB0EE420AF0EE620A8E
:10777000681C604306EBC00000EBC50090ED002BD9
:10778000B0EE421AF0EE621A53EC102B51EC110BD2
:10779000FFF791F96A1C624306EBC20202EBC502D5
:1077A00003C29FED090B681C604306EBC00000EBB1
:1077B000C40080ED000B641CAC42B8DB0020B0E7D5
:1077C0000000000000000000000000000000F03F8A
:1077D0002DE9F0412DED048B06460C4615466D1E35
:1077E0000027ACE04FF000084CE0601C784306EB4B
:1077F000C00000EBC50090ED002BB0EE420AF0EEA9
:10780000620A601C684306EBC00000EBC80090ED04
:10781000002BB0EE421AF0EE621A53EC102B51EC32
:10782000110BFFF7D6F841EC180B601C684306EB10
:10783000C00000EBC50090ED002BB0EE420AF0EE68
:10784000620A601C784306EBC00000EBC80090EDB4
:10785000002BB0EE421AF0EE621A53EC102B51ECF2
:10786000110BFFF7B6F841EC190B53EC182BFFF78F
:10787000AAF8621C7A4306EBC20202EBC80203C2FA
:1078800008F10108A845B0DB601C784306EBC00096
:1078900000EBC50090ED002BB0EE420AF0EE620A5C
:1078A000601C684306EBC00000EBC40090ED002BA9
:1078B000B0EE421AF0EE621A53EC102B51EC110BA1
:1078C000FFF787F841EC180B601C684306EBC0001B
:1078D00000EBC50090ED002BB0EE420AF0EE620A1C
:1078E000601C784306EBC00000EBC40090ED002B59
:1078F000B0EE421AF0EE621A53EC102B51EC110B61
:10790000FFF767F841EC190B53EC182BFFF75BF806
:10791000621C7A4306EBC20202EBC40203C29FED73
:107920000C0B601C784306EBC00000EBC50080ED3B
:10793000000B3A462146304600F0BEF87F1CAF42AD
:10794000FFF650AF0020BDEC048BBDE8F0810000D5
:1079500000000000000000002DE9F0412DED048B37
:1079600005460C461646771C86E006F1010826E01F
:10797000601C704305EBC00000EBC60090ED002BCF
:10798000B0EE420AF0EE620A601C784305EBC000DC
:1079900000EBC80090ED002BB0EE421AF0EE621A38
:1079A00053EC102B51EC110BFFF713F8621C7A43C8
:1079B00005EBC20202EBC80203C208F10108B84598
:1079C000D6DD601C704305EBC00000EBC40090EDF9
:1079D000002BB0EE420AF0EE620A601C784305EB21
:1079E000C00000EBC60090ED002BB0EE421AF0EEA6
:1079F000621A53EC102B51EC110BFEF7EAFF41EC2D
:107A0000180B601C704305EBC00000EBC60090ED46
:107A1000002BB0EE420AF0EE620A601C784305EBE0
:107A2000C00000EBC40090ED002BB0EE421AF0EE67
:107A3000621A53EC102B51EC110BFEF7CAFF41EC0C
:107A4000190B53EC182BFEF7BEFF621C7A4305EBB3
:107A5000C20202EBC40203C29FED0B0B601C784311
:107A600005EBC00000EBC60080ED000B3A46214656
:107A7000284600F021F87F1CA742FFF676AF0020D1
:107A8000BDEC048BBDE8F0810000000000000000A8
:107A900070B506460D46002409E0224629463046C8
:107AA00000F00AF810B14FF0FF3070BD641CAC421A
:107AB000F3DB0020F9E700002DE9F0412DED088B04
:107AC00006460D461746681C784306EBC00090ED4D
:107AD000001BB0EE410AF0EE610A51EC100BFFF70B
:107AE00077F8B0F1000801DB414601E0C8F1000180
:107AF0000846FFF74FF841EC180B51EC180B41EC1E
:107B00001A0B2C4632E0681C784306EBC00000EBF1
:107B1000C40090ED001BB0EE410AF0EE610A51EC9A
:107B2000100BFFF755F8B0F1000801DB414601E00A
:107B3000C8F100010846FFF72DF841EC190B53EC92
:107B4000192B51EC180BFFF775F803D2B0EE498AE8
:107B5000F0EE698A53EC192B51EC1A0BFFF782F8FF
:107B600003D2B0EE49AAF0EE69AA641E002CCAD175
:107B700053EC1A2B51EC180BFEF784FE41EC1B0B57
:107B80009FED150B53EC102BFEF723FF41EC180B68
:107B90002C4619E0681C784306EBC00000EBC400DB
:107BA00090ED001BB0EE410AF0EE610A53EC182B89
:107BB00051EC100BFEF77FFF6A1C7A4306EBC20202
:107BC00002EBC40203C2641E002CE3DA0020BDEC09
:107BD000088BBDE8F0810000F168E388B5F8D43E79
:107BE00010B50446002205E0002300E05B1C8B4238
:107BF000FCDD521C8A42F7DB002010BD10B50020CE
:107C00000949086000210948C0F84411C0F848112A
:107C1000C0F84C1100200549C1F8000102493C3967
:107C200008600EF047FB10BD4011014000100140FC
:107C300010B504220021024807F0ECFA10BD000044
:107C400000400240FEB54FF4827009F059FF002851
:107C500037D04FF4827009F05DFF6C4890F82E0029
:107C600018B16A4890F82F0058B300208DF8000032
:107C700066484068019065480189ADF80810C06801
:107C800018B900206149087412E06048008B5F4910
:107C900048830846C06848600846008B0881002079
:107CA000C860084690F82E0010B9002009F03EFF89
:107CB00056480168684688470020544981F82F00DB
:107CC00000BF524890F82E00002852D04FF4807028
:107CD00009F016FF00284CD04FF4807009F01AFF0D
:107CE0004A48408B494991F82D10884216DD474893
:107CF000408B464991F82D10401A444948830A4662
:107D000012890B465B8BD21A0B465B6803EB420071
:107D10000A4692F82D1009F0EBFE23E03B48408B19
:107D20003A4991F82D1088420FD13848C06860B1A7
:107D30000120364981F82F00002048830A4692F836
:107D40002D10D06809F0D4FE0CE03048408B2F494C
:107D500091F82D10884205D101202C4981F82F007F
:107D6000002048834FF4827009F0D4FE042009F00B
:107D7000DDFE4FF4887009F0C3FE70B14FF48870D7
:107D800009F0C8FE00202149087402208DF8000087
:107D9000084601686846884700BF4FF48A7009F0BA
:107DA000AFFE38B14FF48A7009F0B4FE00201749D5
:107DB00008742AE01548456924E0B5FA85F64FF0C5
:107DC0000040F0408543B00000F58C74204609F077
:107DD00097FEB8B1204609F09DFE01208DF8000005
:107DE000A4F58C70C0F3C7008DF80400A4F58C7066
:107DF000012121EA90018DF80510044801686846C8
:107E0000884700BF002DD8D100BFFEBD68330020D9
:107E10007CB51A2503240020009023460246014623
:107E20000190284609F024F800BF7CBD10B51A2047
:107E300009F0B8F810BD10B500F042FC10BD00000C
:107E4000F8B504460D46164600BF0B48007808B941
:107E500000F036FC00BF00200090684602F0EAFE09
:107E600032462946204600F009F807469DF80000F2
:107E700002F0E6FE3846F8BD003B00202DE9F04751
:107E8000074688461646C24607EB47011B4800EBEB
:107E9000C109D9F8140020B1012811D0022826D137
:107EA0001EE0484600F044FC0546B54201D20024DD
:107EB00005E0344632465146484600F080FC18E062
:107EC000484600F035FC0546B54201D2284600E0A0
:107ED0003046044622465146484600F070FC08E011
:107EE00032465146484600F031FC044601E0002489
:107EF00000BF00BF2046BDE8F0870000183B00200F
:107F000010B50249024807F034F910BD983300203B
:107F10000030004010B503494FF0402007F03AF917
:107F200010BD0000C433002010B50EF0CDF810BD18
:107F300010B50AF02DF810BD2DE9F04105460C46AC
:107F40000026002706F069FF6C2006F040FF0EE0D7
:107F500000BF20A1234800F069FC2248FEF7C5FAC3
:107F6000804642461F490020FFF76AFF00BF06F027
:107F70007CFF0028ECD1284606F029FF00BF06F060
:107F800074FF0028FBD106F048FF6D2006F01FFFAC
:107F90000EE000BF0FA1134800F048FC1148FEF7A7
:107FA000A4FA804642460F490020FFF749FF00BF70
:107FB00006F05BFF0028ECD1012006F0E2FE064649
:107FC000002006F0DEFE074606F03BFF26706770D5
:107FD000BDE8F081494943204E4F2061636B210D7C
:107FE0000A000000E42F002070B506460C46154636
:107FF00006F013FF6C2006F0EAFE00BF06F035FF26
:108000000028FBD1304606F0E2FE00BF06F02DFF4F
:108010000028FBD1204606F0DAFE00BF06F025FF5F
:108020000028FBD1284606F0D2FE00BF06F01DFF57
:108030000028FBD106F005FF70BD000008B56946B9
:108040000420FFF779FF9DF8010000EE100AB8EE5A
:10805000400A9FED061AC0EE010A9DF8000000EEEE
:10806000100AB8EE400A30EE800A08BD00008043D6
:1080700030B52DED068B81B069460220FFF75CFF1D
:10808000FFF7DCFFB0EE408A9DF801009DF800107C
:1080900040EA012005112846FEF78DFD41EC1A0B40
:1080A0009FED0F0B53EC102BFEF793FC41EC190BDB
:1080B000FEF7F0FD08EE900ABCEEC80A10EE100ABA
:1080C00009490870B0EE000A28EE000ABCEEC00AAA
:1080D00010EE100AC4B2204601B0BDEC068B30BDD4
:1080E000000000000000F43F582D00200148024924
:1080F000086070470090D003642F002010B505F091
:10810000E5FD28B195480088C0F304209449086033
:1081100005F030FE10B193489349486705F052FED0
:1081200030B18E48E0380068C0F342308F490860B3
:1081300005F072FE28B18E48006820F080708C49EE
:10814000086005F081FE48B100208A4908604FF0C0
:108150008041C1F810018549091F086005F09EFEA5
:1081600018B1032081496431086005F0AFFE68B1A1
:1081700005208149086001207F497831086000208E
:108180007D49083108603F20091F086005F0B6FEF0
:10819000002855D07148E0300068784908606F4881
:1081A000E4300068091D08606C48E8300068091D6B
:1081B00008606A48EC300068091D08606748F030C4
:1081C0000068091D08606548F4300068091D0860F2
:1081D0006248F83000686949203108605F48FC3027
:1081E0000068091D086066480068091D0860644849
:1081F000001D0068091D0860614808300068091DFD
:1082000008605F480C300068091D08605C48103049
:1082100000685A4940310860594814300068091D07
:108220000860574818300068091D086054481C3021
:108230000068091D0860524820300068091D086068
:1082400005F01AFD30B14548CC38006800F04F0009
:108250004C49086005F064FD40B14B48006800F0EF
:10826000010018B16FF001004749086005F09AFD60
:1082700028B14648006840F48060444908603C48A2
:108280007438006840F4700039497439086000BFE0
:1082900000BF00BFBFF34F8F00BF00BF00BF00BFD4
:1082A00000BF00BFBFF36F8F00BF00BF00BF3848E3
:1082B000006800F00100F0B101203649086000BFFD
:1082C000354800680028FBD03148006820F00100E4
:1082D0004FF01021C1F80C0200BF2F4800680028A1
:1082E000FBD000202B49086000BF2B480068002805
:1082F000FBD0FFF787F926480C38006800F00040F3
:1083000028B923480838006800F0004018B301205D
:108310002049086000BF204800680028FBD01520D5
:108320001B490C39086000BF1B4800680028FBD0BF
:10833000152117480838016000BF17480068002859
:10834000FBD000201349086000BF134800680028D4
:10835000FBD0FFF757F9FFF7C9FE10BD240300104B
:10836000403501400DF0ADBA00C007403C0500406B
:10837000FCED00E00C0100401056004020C500401C
:1083800024040010E40E0040000400403C170040AC
:108390000C12001004E5014000E4014010B5042275
:1083A0000249034806F008FF10BD00000034002019
:1083B0000090004030B52DED088B87B004460D4687
:1083C00094ED001BB0EE410AF0EE610A51EC100B87
:1083D000FEF760FC059094ED021BB0EE410AF0EE52
:1083E000610A51EC100BFEF755FC069094ED061B4C
:1083F000B0EE410AF0EE610A51EC100BFEF74AFCB8
:10840000039094ED081BB0EE410AF0EE610A51ECC6
:10841000100BFEF73FFC049094ED0C1BB0EE410AEC
:10842000F0EE610A51EC100BFEF734FC019094ED74
:108430000E1BB0EE410AF0EE610A51EC100BFEF794
:1084400029FC02902868FEF7A5FB41EC1B0B9FED71
:10845000200B53EC102BFEF72EFB41EC180B686839
:10846000FEF798FB41EC1B0B9FED190B53EC102B07
:10847000FEF721FB41EC190BA868FEF78BFB41ECE2
:108480001B0B9FED130B53EC102BFEF714FB41EC71
:108490001A0BB0EE4A5AF0EE6A5AB0EE494AF0EEC4
:1084A000694AB0EE483AF0EE683ADDED022A9DEDF9
:1084B000012ADDED041A9DED031ADDED060A9DED9E
:1084C000050A0DF099FF07B0BDEC088B30BD000028
:1084D00000000000000059402DE9F04105460E461D
:1084E000B5F5A07F6DD138480068401C364908605A
:1084F00008460068B0F5FA7F03D3002008600FF04B
:1085000091F83248006850B130480068401E2F4949
:1085100008600846006810B901202D4908702D48F0
:10852000006820B32B480068401E2A4908600846AE
:108530000068E0B9642025490860002404E01321A4
:10854000204676DF601CC4B2012CF8DB00BF1F4858
:1085500021A10268284800F069F92748FDF7C5FF06
:1085600007463A4624490020FFF76AFC00BF0DF099
:108570002FFB102000BF4FF0A042114600BFD1F8E2
:108580001025C24002F00102C2B91C480068401C1C
:108590001A49086008460068B0F5FA6F11D9002042
:1085A00008600F2000BF4FF0A0410A46012303FAE4
:1085B00000F1C2F80C1500BF00BF02E000200F4917
:1085C0000860BDE8F08100001C2B0020182B002063
:1085D000E02B0020DC2B00204E5649435F5379737B
:1085E00074656D52657365745F616674657220258C
:1085F00064206D730D0A0000E42F0020202B002062
:10860000FEB501240026164903C9CDE90101154A2A
:1086100001A915480AF098FB064600BF374627B166
:1086200000BF384602F06AF900BF00BF00BF0E4A23
:108630001168D1F8100500BF01464FF47A52624329
:1086400022FA01F500BF00BF012003462A4600219F
:10865000009005480AF056FB03480AF041FBFEBDB6
:108660007C7A0300D9840200747A030010B50249B1
:108670000868804710BD0000482C002008B5012084
:108680000C490968014009B1012100E000210129DC
:108690000FD109480068804700BF00204FF4807167
:1086A000064A8850084611464058009000BF00BF57
:1086B00000BF08BD04030140582C00200000014009
:1086C00010B5124C02202061606111A0A061134915
:1086D000E1614FF4007121620021A1626162E162F7
:1086E0000BA0A0640E49E164102121650021A16561
:1086F0006165E1650BA1E01DFDF70BFF0AA12046B6
:10870000FDF707FF2020A07110BD0000003B0020F6
:108710005465726D696E616C00000000783B00204A
:10872000783D0020525454005345474745520000BD
:1087300010B501460A69CB689A4204D88C68641E59
:10874000E41AA01801E0D41A601E10BD2DE9F0470C
:108750000446894617464FF0000AE56800BFD4F882
:108760001080A84503D9A8EB0500461E04E0A5EB40
:108770000800401CA1680E1AA068401BB04201D935
:10878000304601E0A068401B0646BE4201D230469A
:1087900000E0384606466168481932464946FDF70A
:1087A0006EFEB244B144BF1B3544A068A84200D15C
:1087B0000025E560002FD2D15046BDE8F0872DE9B5
:1087C000F047044689461546E668A068871BAF4215
:1087D00008D9616888192A464946FDF750FE701984
:1087E000E06010E0B8466168881942464946FDF7E6
:1087F00046FEA5EB070809EB070142466068FDF756
:108800003EFEC4F80C80BDE8F08700000FB4054BB5
:1088100010B503A9044A029801F098FB10BC5DF85A
:1088200014FB0000B1E10200982C00200FB4084BAB
:1088300010B504A902AA039801F088FB044602A916
:10884000002001F01AFF204610BC5DF814FB000068
:108850007BA6020003B401984100009850EAC120B1
:1088600018BF04204A0D18BF40F0010040F2FF720B
:10887000B2EB515F08BF40F00200012808BF05209D
:1088800002B070470000000070B5D94B00242DEDF8
:10889000020B2DED108BDDE91010984205DA20F067
:1088A00000429A4201D809D141B19DED100BBDECB7
:1088B000108B02B0BDE8704001F032B9B0F5801FF6
:1088C00026DA11430BD0002813DA012001F09EF9BB
:1088D000BDEC108B02B0BDE8704001F035B902204C
:1088E00001F094F901F004F951EC100B81F0004112
:1088F0009EE06FF035049FEDC00B53EC102B9DED07
:10890000100B51EC100BFEF764F8CDE9100108468E
:1089100004EB2051C0F31304B948A1F2FF31204405
:1089200000F4801080F07F6282F04052224301EB1D
:1089300020559FEDB50B119253EC102B9DED100BB4
:1089400051EC100BFEF73FF841EC180BA01CC0F3E4
:1089500013009FEDAFDB9FEDB0EBB14E7E440328DB
:108960006CD296ED000B51EC180B53EC102BFEF76C
:1089700061F91DD1002D01BF96ED000BBDEC108BF0
:1089800002B070BD2846FEF705F941EC180B53EC18
:108990001D2BFEF71EF841EC190B53EC1E2B51EC6E
:1089A000180BFEF716F853EC192BFDF76BFF3FE0A1
:1089B0009FED9D0B51EC180B53EC102BFEF709F8B3
:1089C0009FED9B1B53EC112BFEF700F841EC190BAC
:1089D00053EC182B51EC180BFDF7FBFF53EC192B44
:1089E000FDF7F7FF41EC190B002D04BF53EC192BD9
:1089F00051EC180B1AD02846FEF7CCF841EC1A0BB4
:108A000053EC1D2BFDF7E5FF53EC192BFDF7DEFFB3
:108A100053EC182BFDF7D7FF41EC180B53EC1E2B32
:108A200051EC1A0BFDF7D5FF53EC182BFDF7CBFFDC
:108A3000BDEC108B02B041EC100B70BD9FED7E0BB6
:108A400051EC180B53EC102BFDF71CFF41EC100BF5
:108A500051EC180B53EC102BFEF72DF841EC190BD1
:108A60002846FEF797F841EC1B0B53EC192B51EC01
:108A7000190BFDF7AEFF41EC1A0B714853EC1A2BA2
:108A8000261851EC1A0BFDF7A4FF41EC1F0B6D48A3
:108A9000C4F1510404F5D724B0EE4F0AF0EE6F0A8A
:108AA0000321784400F0A8FF53EC1F2B51EC100B6E
:108AB000FDF78FFF41EC1C0B6348B0EE4F0AF0EE60
:108AC0006F0A0421784400F097FF53EC1A2B51EC05
:108AD000100BFDF77EFF344353EC1C2BFDF7D2FE49
:108AE00041EC1C0B002C4CDD9FED510B51EC180B95
:108AF00053EC102BFDF76DFF53EC182BFDF769FFBE
:108B000041EC1A0B55B353EC1D2B51EC1B0BFDF72D
:108B100060FF41EC1D0B53EC1C2B51EC1A0BFDF7C5
:108B2000B1FE53EC192BFDF754FF53EC1D2BFDF751
:108B3000A9FE53EC1A2BFDF749FF53EC182BFDF758
:108B400042FF41EC180B53EC1E2B51EC1B0BFDF7B5
:108B500040FF53EC182BFDF736FF69E753EC1C2B55
:108B600051EC1A0BFDF78EFE53EC192BFDF731FF7C
:108B700053EC1A2BFDF72AFF53EC182BFDF726FFB9
:108B800056E735B353EC1D2B51EC1B0BFDF721FFC2
:108B900041EC1A0B53EC1C2B51EC180BFDF713FF97
:108BA00053EC192BFDF715FF53EC1A2BFDF70BFFB8
:108BB00053EC182BFDF707FF41EC180B53EC1E2B61
:108BC00051EC1B0BFDF705FF53EC182BFDF7FBFEDB
:108BD0002EE753EC1C2B51EC180BFDF7F4FE53EC75
:108BE000192BFDF7F6FE53EC182BFDF7EFFE1FE7F0
:108BF0000000F07F00000000000000000000504373
:108C0000645F090000000000000000000000F03F69
:108C1000763C7935EF39EA3D0000E0FE422EE63F32
:108C2000C8F6000000000000555555555555D53F74
:108C3000000000000000E03F0000000000000040D5
:108C400086EBF9FF4AF5000040F500000000000047
:108C500070B5414A00252DED020B2DED048BDDE9A9
:108C60000404944205DA24F00041914201D809D16C
:108C700040B19DED040BBDEC048B02B0BDE870402B
:108C800000F04EBFB4F5801F26DA08430BD0002C4D
:108C900013DA012000F0BAFFBDEC048B02B0BDE88E
:108CA000704000F051BF022000F0B0FF00F020FF44
:108CB00051EC100B81F0004146E09FED290B6FF065
:108CC000350553EC102B9DED040B51EC100BFDF70B
:108CD00080FECDE904010C4605EB2450A0F2FF30E4
:108CE000C10F40F2FF32521A62F31F540844FDF7DD
:108CF00051FF05949DED040B41EC180B51EC100B4A
:108D000006F018FC9FED181B53EC112BFDF761FECC
:108D10009FED170B41EC190B53EC102B51EC180B7A
:108D2000FDF757FE53EC192BFDF7ACFD9FED120B31
:108D300041EC190B53EC102B51EC180BFDF749FECD
:108D400053EC192BFDF79EFDBDEC048B02B041ECFA
:108D5000100B70BD000000000000F07F000000005C
:108D600000000000000050430EE526157BCBDB3FE2
:108D7000362BF111F3FE593D00609F501344D33F51
:108D80002DE9F04D2DED040B2DED0E8B96B0DDE9A8
:108D90002550279CDDF890A025F0004624F00048DF
:108DA000BAF1000F14BF0121002101EB4502FC497B
:108DB00053184A1093422AD3002814BF01230023DA
:108DC00003EB44030B44F7498B4220D358EA0001DC
:108DD0009FEDF59B76D0DFF8D8B35D4503D1BAF1AE
:108DE000000F05D188E0BAF1000F08BF002100D0C4
:108DF000012101EB450111F5001F08D8002814BF1F
:108E00000121002101EB440111F5001F0BD99DED5B
:108E1000261B9DED240B16B0BDEC0E8B04B0BDE8F7
:108E2000F04D00F087BE0027002DBCBFE14988450A
:108E300021DAE1498845A8BF02271CDAC3451ADCBC
:108E4000DE4901EB2851142908DDC1F1340220FA72
:108E500002F101FA02F282420DD108E058B9C1F1E3
:108E6000140228FA02F101FA02F2424503D101F09C
:108E70000101C1F1020756EA0A0124D1002C22DACD
:108E8000002D18BF022F01D0012F0AD0022000F0C0
:108E9000BDFE16B0BDEC0E8B04B0BDE8F04D00F089
:108EA00027BE022000F0B2FE00F022FE51EC100BB3
:108EB00081F0004141EC100B16B0BDEC0E8B04B0FC
:108EC000BDE8F08D18E09FEDBEAB9FEDBF8B002895
:108ED00071D1B848804522D105F1804010F580104D
:108EE00008BFBAF1000F07D0B3450ADC002CA8BFB9
:108EF0009DED260BE0DA0DE0B0EE490AF0EE690ACE
:108F0000DAE7002C06DA9DED260B51EC100B81F010
:108F100000416FE0AE48784490ED000BCCE7D845B7
:108F20004DD1002C48DA2EB186423AD1BAF1000F69
:108F300042D126E0BAF1000F13D0022000F066FE05
:108F400000F012FE8DED020B9DED240B8DED000B5C
:108F500010EE900A039961F31E0003909DED020B41
:108F6000AAE78DED02AB9DED240B1AEE901A10EEE0
:108F7000900A8DED000B61F31E0003909DED020B36
:108F80009AE78DED028B9DED240B18EE901A10EEF2
:108F9000900A8DED000B61F31E0003909DED020B16
:108FA0008AE709DA9DED240B51EC190B53EC102BD9
:108FB000FDF781FD1EE020E09DED240B7CE786425D
:108FC0001BDAB4F1804F0DD0A4F10050B0F1FF5086
:108FD00013D1002D11DB9DED240B51EC100B0CF087
:108FE000B2FD07E09DED240B53EC102B51EC100B60
:108FF00000F0C2BC41EC100B5EE79DED240B51EC80
:10900000100B04F0F3FFBAF1000FCDE90E0142D1CD
:109010009FED710B46B3A6F1E040B0F17F600CD03C
:109020005E4538D1002D00DAA7B3022F0CBF012016
:109030004FF0FF30FDF7AEFDDCE7002D01DD002C29
:109040000DDA002D01DD002C1FDB002D16DA002CBF
:1090500014DB012F08BF9FED620B3FF42DAFB0EE84
:109060004A0AF0EE6A0A27E7022F18BF002D0CD03B
:10907000012F0AD1002DFFF61FAF06E0002DB8BF6B
:10908000002C08DA012F3FF417AFB0EE480AF0EEDB
:10909000680A11E71BE0012000EBE57050EA0701C8
:1090A00015D0791EB0EE498AF0EE698A084308BFF0
:1090B0009FED4D8B4E480025804570DD4D494E4853
:1090C000884514DDB0420DDB002C19DB2FE00120B8
:1090D00000F09CFD16B0BDEC0E8B04B0BDE8F04D69
:1090E00000F032BDB34502DC002C09DC1FE08642F3
:1090F00002DA002C1BDA03E05E452BDD002C16DDC6
:10910000022000F083FD00F02FFD8DED020B53ECEB
:109110001A2B51EC180BFDF75CFCCDE9000103990B
:10912000019861F31E0003909DED020BC4E602203E
:1091300000F06CFD00F028FD10EE901A18EE900A79
:109140008DED020B8DED008B61F31E0003909DED04
:10915000020BB1E69DED0E0B53EC192B51EC100BED
:10916000FDF731FC9FED260BCDE9080153EC102BE8
:109170009DED080B51EC100BFDF72BFC9FED221B16
:1091800053EC112BFDF722FC9DED081B53EC112B2A
:10919000FDF71FFC9FED1E1B53EC112B3CE08CE0F8
:1091A000FFFF1F00FFFF0F00000000000000F03F66
:1091B0000000F03F0000F07F0000404301FCFFFF93
:1091C000000000000000F07F000000000000000030
:1091D0000EF1000000000000000000000000008010
:1091E000000000000000F0FF000000000000F0BFE1
:1091F0000000E0410000F043FFFFEF3F00000000EF
:10920000000000000000D03F555555555555D53F3D
:10921000000000000000E03FFDF7D8FB9DED080BCB
:1092200041EC1A0B53EC102B51EC100BFDF7D1FB5A
:1092300053EC1A2BFDF7CDFB41EC1A0B9FEDFE0B07
:1092400053EC102B9DED080B51EC100BFDF7C1FBFF
:1092500041EC1B0B9FEDFA0B51EC1A0B53EC102B4E
:10926000FDF7B7FB41EC1A0B9FEDF70B53EC102BFE
:109270009DED080B51EC100BFDF7ABFB53EC1A2BDB
:10928000FDF7A1FB41EC1A0B51EC1B0B53EC1A2B15
:10929000FDF7F8FA0690CDE906519DED060B53EC6B
:1092A0001B2B51EC100BFDF78EFB53EC1A2BFDF72B
:1092B0008DFB41EC100B00F0A1B90020B6F5801F2A
:1092C0000EDA9FEDE30B53EC102B9DED0E0B51ECE2
:1092D000100BFDF77EFBCDE90E016FF034000E465A
:1092E00000EB2650A0F2FF37C6F31300DA4940F036
:1092F0007F6646F040568842D8BF002408DDD74933
:109300008142C8BF012403DC0024A6F580167F1C1F
:10931000D348784400EBC4000F9690ED00CB9DED50
:109320000E0B53EC1C2B51EC100BFDF74CFB9DED81
:109330000E0B41EC1B0B53EC1C2B51EC100BFDF7EF
:10934000A1FA41EC100B51EC190B53EC102BFDF76B
:10935000B2FB41EC1D0B51EC1B0B53EC1D2BFDF72D
:1093600038FB41EC1A0BBF488DED10AB78441095DB
:1093700090ED000B4FF0005040EA660000EB844097
:109380008DED080B00F5002009909DED080B53ECC6
:109390001C2B51EC100BFDF716FB9DED0E1B53EC37
:1093A000112BFDF713FB41EC100B53EC102B9DED33
:1093B000100B51EC100BFDF70CFB9DED080B41EC75
:1093C0001C0B53EC102B9DED100B51EC100BFDF70B
:1093D00000FB53EC1B2BFDF7F9FA53EC1C2BFDF7AC
:1093E000F2FA53EC1D2BFDF7F4FA41EC1C0B53EC95
:1093F0001A2B51EC1A0BFDF7ECFA41EC1B0B9A48B7
:109400000621B0EE4B0AF0EE6B0A784400F0F4FA55
:10941000B0EE401AF0EE601AB0EE41DAF0EE61DA2A
:1094200053EC1B2B51EC1B0BFDF7D3FA53EC1D2B0C
:10943000FDF7CFFA9DED100B41EC1B0B53EC1A2BF3
:1094400051EC100BFDF71EFA53EC1C2BFDF7C1FA83
:1094500053EC1B2BFDF716FA9DED100B41EC1B0B8B
:1094600053EC102B51EC100BFDF7B3FA41EC1D0B34
:109470009FED7FEB53EC1E2BFDF704FA53EC1B2BF7
:10948000FDF700FA0890CDE908519DED080B53EC6B
:109490001E2B51EC100BFDF796FA53EC1D2BFDF72C
:1094A00092FA53EC1B2BFDF791FA9DED080B41EC62
:1094B0001D0B53EC102B9DED100B51EC100BFDF719
:1094C00088FA41EC1B0B53EC1A2B51EC1D0BFDF7EA
:1094D00080FA9DED080B41EC1A0B53EC102B51EC6C
:1094E0001C0BFDF776FA53EC1A2BFDF7CBF941EC88
:1094F0001A0B51EC1B0B53EC1A2BFDF7C3F90C9014
:10950000CDE90C519DED0C0B53EC1B2B51EC100BCA
:10951000FDF759FA53EC1A2BFDF758FA41EC1B0BE7
:109520009FED550B53EC102B9DED0C0B51EC100BDC
:10953000FDF74FFA41EC1A0B9FED510B51EC1B0B51
:1095400053EC102BFDF745FA41EC1B0B9FED4E0B36
:1095500053EC102B9DED0C0B51EC100BFDF739FA71
:1095600053EC1B2BFDF78EF941EC100B4848784467
:1095700000EBC40090ED001B51EC100B53EC112BD1
:10958000FDF780F941EC1B0B3846FDF703FBCDE9F5
:10959000080153EC1B2B51EC1A0BFDF773F941EC4E
:1095A000100B3C48784400EBC40090ED00CB51EC2C
:1095B000100B53EC1C2BFDF765F99DED081B53ECCC
:1095C000112BFDF75FF90690CDE906519DED080BD3
:1095D00053EC102B9DED060B51EC100BFDF7F3F93E
:1095E00053EC1C2BFDF7EFF953EC1A2BFDF7EBF9BD
:1095F00053EC1B2BFDF7EAF941EC100B9DED261BFC
:1096000053EC102B8DED001B00959DED260B51ECBE
:10961000100BFDF7DEF99DED000B41EC1A0B53EC3E
:10962000102B9DED260B51EC100BFDF7CCF99DEDA9
:10963000061B53EC112B2FE0000000604715F73F8D
:10964000FE822B654715F73F44DF5DF80BAE543EB5
:1096500000000000000040438E9803007AB60B0023
:10966000CAEB0000B8EC000002EB000000000000B4
:109670000000000000000840000000E009C7EE3FC5
:10968000FD033ADC09C7EE3FF5015B14E02F3EBE57
:109690008EE9000048E90000FDF79BF953EC1A2B16
:1096A000FDF7F0F89DED060B41EC1A0B53EC102B77
:1096B0009DED000B51EC100BFDF78BF9CDE90C0182
:1096C0009DED0C0B51EC1A0B53EC102BFDF7DAF857
:1096D000CDE902010C46AA498C422FDB611A0843EE
:1096E00018D19DED0C0B53EC102B9DED020B51ECA2
:1096F000100BFDF768F941EC1B0B9FEDA30B51EC30
:109700001A0B53EC102BFDF7BDF853EC1B2BFDF798
:10971000A9FA2DD2022000F079FA00F025FA10EE15
:10972000901A18EE900A8DED020B8DED008B61F30F
:109730001E0003909DED020BFFF7BEBB944A24F080
:109740000041914214D39349214408437FF4EFAC84
:109750009DED0C0B53EC102B9DED020B51EC100BFF
:10976000FDF731F953EC1A2BFDF77CFA7FF6DFACED
:1097700024F000408849894A002601EB20518242AA
:109780002BDA481C4FF4801121FA00F02044844A5F
:10979000C0F30A517A44A1F2FF3192ED000B814AE5
:1097A0008DED080BCA4020EA0202C0F3130040F41A
:1097B0008010C1F1140120FA01F60992002CB8BF03
:1097C00076429DED080B53EC102B9DED0C0B51ECEC
:1097D000100BFDF7F8F8CDE90C019DED0C0B51ECE9
:1097E0001A0B53EC102BFDF74DF89FED6F0B089003
:1097F000CDE9085153EC102B9DED080B51EC100BEB
:10980000FDF7E7F841EC1B0B9FED690B53EC102BB8
:109810009DED080B51EC100BFDF7DBF89DED0C0BEB
:1098200041EC1C0B53EC102B9DED080B51EC100B75
:10983000FDF7C9F853EC1A2BFDF7C8F89FED5E1B36
:1098400053EC112BFDF7C5F853EC1C2BFDF71AF860
:1098500041EC1A0B51EC1B0B53EC1A2BFDF712F8D1
:10986000CDE902019DED020B53EC1B2B51EC100BCB
:10987000FDF7A9F853EC1A2BFDF7A8F89DED020BA4
:1098800041EC1A0B53EC102B51EC100BFDF7A1F827
:10989000CDE908014A489DED080B0521784400F008
:1098A000ABF89DED081B51EC100B53EC112BFDF7A1
:1098B00090F89DED021B53EC112BFDF787F8CDE9D5
:1098C00006019DED020B53EC1A2B51EC100BFDF72A
:1098D00080F853EC1A2BFCF7D5FF9FED3B0B41ECC6
:1098E0001A0B53EC102B9DED060B51EC100BFDF7F2
:1098F0006AF89DED060B41EC1B0B53EC102B9DED14
:10990000020B51EC100BFDF764F853EC1B2BFDF729
:10991000D2F853EC1A2BFDF756F89DED021B53ECD1
:10992000112BFDF750F853EC192BFDF74FF8CDE94B
:10993000020101EB065001150029C8BF039015DC98
:109940009DED020B324651EC100BFDF7D9FAFEF7F4
:1099500081FF042808BF00F017F932469DED020B85
:1099600051EC100BFDF7CCFACDE902019DED020B95
:1099700051EC180B53EC102BFDF72BF8FFF73ABB0B
:109980000000904000000000FE822B654715973CC8
:1099900000CC904000346F3F01FCFFFF0000E03F2F
:1099A00090E80000FFFF0F0000000000432EE63F9C
:1099B000396CA80C615C20BEEF39FAFE422EE63FFE
:1099C000A0E60000000000000000000000000040D1
:1099D00000B583B09FED060B0A4601468DED000BE6
:1099E0006846FDF7C6F99DED000B03B000BD000011
:1099F000000000000000000070B504462DED028B51
:109A00004D1E00EBC500B0EE408AF0EE608A90ED8E
:109A1000000B35F0060017D053EC182B51EC100B4F
:109A2000FCF7D7FF41EC100B6D1E04EBC50090ED69
:109A3000001B51EC100B53EC112BFCF723FF41ECF6
:109A4000100B35F00600E7D1022D36D0042D1CD0C6
:109A5000062D1CBFBDEC028B70BD53EC182B51ECD6
:109A6000100BFCF7B6FF94ED0A1B53EC112BFCF71F
:109A700009FF53EC182BFCF7ACFF94ED081B53ECDB
:109A8000112BFCF7FFFE41EC100B53EC182B51ECA3
:109A9000100BFCF79EFF94ED061B53EC112BFCF70B
:109AA000F1FE53EC182BFCF794FF94ED040B53ECF0
:109AB000102BFCF7E7FE41EC100B53EC182B51EC8C
:109AC000100BFCF786FF94ED021B53EC112BFCF7F7
:109AD000D9FE53EC182BFCF77CFF94ED001B53ECE4
:109AE000112BFCF7CFFEBDEC028B41EC100B70BDCF
:109AF0009FED070B10B553EC102B9FED070B51ECAE
:109B0000100BFCF7D8FF41EC100B10BD000000005B
:109B10000000000000000000000000000000F03F16
:109B200010B553EC102B51EC100BFCF7ABFE41ECD5
:109B3000100B10BD10B553EC112B51EC100BFCF7B2
:109B4000A1FE41EC100B10BD9FED050B10B553ECC1
:109B5000102B51EC100BFCF7AEFF41EC100B10BDBD
:109B600000000000000000009FED050B10B553EC55
:109B7000102B51EC100BFCF72CFF41EC100B10BD1F
:109B800000000000000000709FED050B10B553ECC5
:109B9000102B51EC100BFCF71CFF41EC100B10BD0F
:109BA000000000000000001002E008C8121F08C1F9
:109BB000002AFAD170477047002001E001C1121F4E
:109BC000002AFBD1704700000146202908DA012055
:109BD00088400A4A104008B1012070470020FCE785
:109BE000402909DAA1F12000012202FA00F008B1AF
:109BF0000120F2E70020F0E70120EEE7FC06FFBDC0
:109C000000BFEFF31081084672B670470149086043
:109C100070470000702F002038B504466D2000907A
:109C20006B46012240F606012E2003F04CFF3CB1AA
:109C300040F2076241F606012E2003F019FF06E00C
:109C400041F2076241F606012E2003F011FF38BDF4
:109C500038B504466B4602220021362003F05AFD37
:109C60000E2C57D2DFE804F011071A565656562329
:109C70003256563F464D00208DF800009DF80100F9
:109C800000F0FE008DF8010045E09DF8000000F0B6
:109C9000FC0040F001008DF800003CE09DF8000061
:109CA00000F0FC0040F002008DF8000033E09DF869
:109CB000000000F0B30040F048008DF800009DF86F
:109CC000010040F080008DF8010024E09DF80000C4
:109CD00000F0B3008DF800009DF8010000F07F0057
:109CE0008DF8010017E09DF8010040F002008DF8AA
:109CF000010010E09DF8010000F0FD008DF801006A
:109D000009E09DF8000000F0CF0040F020008DF841
:109D1000000000E000BF00BF6B460122002136209A
:109D200003F0D1FE0DF1010301221146362003F0AC
:109D3000CAFE38BD08B503208DF8010001208DF85A
:109D400000006B4602220021362003F0BCFE4FF4D7
:109D5000004206212D2003F08BFE012002F0FCFFC3
:109D60000120FFF775FF08BD38B50446200A8DF8BD
:109D70000100E0B28DF800006B46022204212D2084
:109D800003F0A1FE03208DF800006B46012206219E
:109D90002D2003F098FE00208DF800006B46012274
:109DA00006212D2003F08FFE0A212D2003F072FCE6
:109DB0000546284638BD00002DE9FF5F82B000212E
:109DC000DDE90430020DDDF840B0034318D044F65D
:109DD0001050A2F2FF3242431514119801281FD0EF
:109DE000A5EB0B00401C5FEA000A4FF000064E4F47
:109DF000DFF83891B046504615D5CAF1000413E09B
:109E0000119801244AA3012801D16FEA0B0102989D
:109E1000119AC0E90031C0E9024206B0BDE8F09FE6
:109E2000CBF10000DFE704460021404A491842EB2D
:109E30000450CDE9001012E0E00707D032463B465F
:109E400040464946FCF7C5FD8046894632463B46BA
:109E500010461946FCF7BDFD06460F466410002C5F
:109E6000EAD1DDE90401DDE90023BAF1000F06DAE9
:109E7000FCF7AFFD42464B46FCF7ABFD05E0FCF7B7
:109E80001AFE42464B46FCF716FE04460E460022DA
:109E9000284BFCF7E7FE03D84FF0FF30014607E000
:109EA0000022254B20463146FCF7ECFCFDF79CF8E0
:109EB000102409E0002C0ADB0A220023FCF792FAA6
:109EC000039B30321A55641E50EA0102F2D1641C21
:109ED000039AC4F111031444119A012A03D00122F8
:109EE00008430DD10AE0084304D000204FF0110BC5
:109EF000119072E7A3EB0B056D1E0DE05B4504DDD1
:109F00004FF0000205F1010504E003DA4FF0000212
:109F1000A5F10105002AECD002981199C0E902319F
:109F2000C0E9004579E70000000014400000F03F60
:109F3000300000000000F0430000E03F30380A2805
:109F400001D2012070470020704700002DE9FF4F2B
:109F500095B09B468946064600250FE2252877D115
:109F600000242746F84A0121059400E0044316F82E
:109F7000013F203B01FA03F01042F7D130782A2844
:109F800011D06FF02F033078A0F13002092A16D8D3
:109F9000059A44F0020402EB820203EB42021044F1
:109FA000761C0590EFE759F8042B0592002A03DA96
:109FB000504244F40054059044F00204761C30787A
:109FC0002E2816D116F8010F44F004042A280DD0CB
:109FD0006FF02F023078A0F13003092B09D807EB7E
:109FE000870302EB4303C718761CF3E759F8047B99
:109FF000761C30786C280FD006DC4C2817D06828E7
:10A000000DD06A2814D104E0742810D07A280FD11A
:10A010000DE044F400140AE044F4801401E044F438
:10A0200040147278824202D104F58014761C761CAA
:10A03000307866280BD013DC582877D009DC00284C
:10A0400075D04528F6D04628F4D047281AD19DE18E
:10A0500018E0632835D0642879D0652812D195E1BD
:10A06000702873D008DC6728F1D069286FD06E287B
:10A070000DD06F2806D1B5E073282CD0752875D087
:10A08000782874D05A46179990476D1C75E1C4F32F
:10A090000250022809D003280DD0D9F80010042856
:10A0A0000DD00D6009F1040967E1D9F80010EA1735
:10A0B000C1E90052F6E7D9F800100D80F2E70D7003
:10A0C000F0E719F8041B8DF8001000208DF801004E
:10A0D000EA46012003E059F804AB4FF0FF30610776
:10A0E0004FF0000102D40DE008F101018846B942A9
:10A0F0000FDA8045F8DB1AF808100029F4D108E0DF
:10A1000008F1010188468142FADB1AF8081000299B
:10A11000F6D105985B46A0EB080721463846179A0A
:10A1200000F094FA284400EB080507E04DE029E12F
:10A130000DE01AF8010B5A4617999047B8F101083B
:10A14000F7D25B4621463846179A13E142E00A22CD
:10A150000092C4F302524FF0000A022A08D059F8C4
:10A1600004CB032A4FEAEC710AD00DE029E02AE083
:10A1700009F1070121F00702F2E802C1914609E066
:10A180000FFA8CFC4FEAEC71042A03D14FFA8CFCD5
:10A190004FEAEC71002907DA0A460021DCF1000CD5
:10A1A00061EB02012D2202E0220504D52B228DF85D
:10A1B0000420012203E0E20701D02022F7E79046C5
:10A1C00059E00A2102E010220DE010214FF0000AB0
:10A1D00000910BE010224FF0000A44F0040408271D
:10A1E000009203E008224FF0000A0092C4F30252EA
:10A1F000022A05D059F804CB0021032A08D009E02F
:10A2000009F1070121F00702F2E802C1914605E0D9
:10A210001FFA8CFC042A01D10CF0FF0C4FF000084F
:10A22000220728D5702806D0009B83F0100353EA3C
:10A230000A0305D00EE040228DF80420012208E038
:10A240005CEA010206D030228DF804208DF805006A
:10A2500002229046009B83F0080353EA0A030AD1C6
:10A260005CEA010201D1620705D530228DF8042095
:10A270004FF001087F1E582804D034A003900EA888
:10A2800002900DE036A0F9E753466046009AFCF7CD
:10A29000A9F884460398825C0298401E02900270DE
:10A2A0005CEA0100F0D1029806A9081A00F1200A20
:10A2B000600702D524F4803400E00127574502DD11
:10A2C000A7EB0A0000E0002000EB0A0100900598CF
:10A2D0004144401A0590E00306D45B462146179A94
:10A2E000059800F0B3F90544002706E001A85A4696
:10A2F000C05D179990476D1C7F1C4745F6DBE00356
:10A300000CD55B462146179A059800F09FF9054445
:10A3100004E030205A46179990476D1C0099481E5A
:10A3200000900029F5DC08E0029802995A4600786E
:10A33000491C0291179990476D1CBAF10001AAF1CE
:10A34000010AF1DC65E100000928010030313233F7
:10A350003435363738396162636465660000000061
:10A36000303132333435363738394142434445464B
:10A370000000000000F058F90544761C30780028F1
:10A380007FF4ECAD19B02846BDE8F08F620700D429
:10A39000062709F1070222F0070CFCE80223E14638
:10A3A00003F000485FEA080C02D00FF2702C0DE0B9
:10A3B0005FEA045C02D50FF2682C07E05FEAC47C18
:10A3C00002D00FF2602C01E0AFF2700C4FF0FF38BA
:10A3D00023F00043CDF850C065280CD006DC45289A
:10A3E00009D046281DD047283DD13DE0662818D029
:10A3F00067287ED138E00021112F01DB112000E019
:10A40000781CCDE9000106A90EA8FFF7D5FCDDE90F
:10A410000F010E9A03910021009207F1010A0491A5
:10A420004DE04FF000400097CDE9011006A90EA8BD
:10A43000FFF7C2FCDDE90F0203920E9B1199002287
:10A44000DDF80CA00093049211B9791C00EB010A0D
:10A45000B7EB0A0004D4C0F1FF3007F1010A049001
:10A46000AAEB0700019044E0012F00DA0127002148
:10A47000112F01DD112000E03846CDE9000106A9C9
:10A480000EA8FFF799FCDDE90F010E9A0391002158
:10A4900004910092BA4621070CD40399514500DA81
:10A4A0008A46BAF1010F05DD009AAAF10101515C5B
:10A4B000302908D0B84202DA10F1040F06DA01217F
:10A4C000CDE9011015E0AAF10101E9E7002805DC5A
:10A4D000049901440491AAEB000102E0411C51459A
:10A4E00000DD8A460499401A401C01904FF000405C
:10A4F0000290200704D40198504501DBCDF8048078
:10A5000000208DF84F0002980DF14F07B0F1004F79
:10A5100025D02B200E9002984FF0020800280CDA6C
:10A52000404202902D200E9007E00A210298FCF78D
:10A53000CDFB3031029007F8011DB8F10001A8F100
:10A540000108F2DC02980028EFD1791E0E980870FD
:10A55000307800F0200040F0450007F8020D12A806
:10A56000C01B00F107081498007800B1012000EB2F
:10A570000A01019801EBE07105984144401A401E20
:10A580000590E00306D45B462146179A059800F033
:10A590005DF805441498007818B15A461799904709
:10A5A0006D1CE00324D55B462146179A059800F000
:10A5B0004DF805441CE00498002807DBDDE90301A1
:10A5C000884203DD0098405C179901E0179930201C
:10A5D0005A469047049805F10105401C04900198E3
:10A5E000401E019004D12E205A46179990476D1CA9
:10A5F000BAF10001AAF1010ADDDC05E017F8010B50
:10A600005A46179990476D1CB8F10001A8F101084E
:10A61000F4DC5B462146179A0598ABE62D00000056
:10A620002B000000200000002DE9F0410446002529
:10A630001E461746880404D405E039462020B0475A
:10A640006D1C641EF9D52846BDE8F0812DE9F04166
:10A65000044600251E469046C80301D5302700E079
:10A660002027880404D505E041463846B0476D1CD4
:10A67000641EF9D52846BDE8F0810A68531C0B60BA
:10A6800010707047014601F0030008B901207047BF
:10A690000020FCE7024650680068401E084008B9E8
:10A6A000012070470020FCE70246002104E0505CD6
:10A6B00008B101207047491C0629F8D30020F9E7AA
:10A6C00010B50346D868884206D88818401E1C6911
:10A6D000A04201D8012010BD0020FCE770B504465F
:10A6E0000D4604F24B20FFF7DFFF0646012D06D092
:10A6F000022D0DD0032D11D0042D19D113E0A07916
:10A7000028B194F8240010B90EB1012070BD00BF2B
:10A71000E07910B10EB10220F8E700BF207A08B14D
:10A720000320F3E700BF607A08B10420EEE700BF22
:10A730000020EBE70146481C052290FBF2F302FBE8
:10A740001300C0B2704710B501220221002001F0B1
:10A75000C7FA044600BF1CB1072C01D0204610BD2B
:10A7600000BF07220221012001F0BAFA044600BF0F
:10A770001CB1072C01D02046F1E700BF0A220021BE
:10A78000084601F0ADFA044600BF1CB1072C01D009
:10A790002046E4E700BF0020E1E7000030B5ABB0A1
:10A7A000AC216846FBF784FE02208DF800000020F3
:10A7B0008DF8020005208DF803000221ADF84C1041
:10A7C0000F49149101218DF87C104021229144F20F
:10A7D000506123910B48299069460B4800F041FCD9
:10A7E000044600BF254625B100BF284600F086F884
:10A7F00000BF00BF0121044800F030FC2BB030BD89
:10A800003A2D002099360300A83D002070B50321A1
:10A81000064800F0DFFC044600BF254625B100BF16
:10A82000284600F06BF800BF00BF70BDA83D0020B7
:10A8300004462648046000682449086072B600BFD8
:10A8400007F000F800BF00BF06F092FD0028FBD122
:10A8500000BF00BF1E491F4A891AC908012242EAE7
:10A8600001401DA106F010FF00BF1E48006800F067
:10A87000010000B100BE00BF1549164A891AC90877
:10A88000022242EA014018A106F0FEFE00BF00BF0E
:10A8900000BF00BF00BFBFF34F8F00BF00BF00BFAE
:10A8A0001048E438006800F4E06013490843001DD4
:10A8B0000C49E439086000BF00BF00BFBFF34F8FF1
:10A8C00000BF00BF00BF00BF00BFFDE7642C002039
:10A8D000D489030054890300466174616C20657259
:10A8E000726F7200F0ED00E053797374656D207241
:10A8F00065736574000000000000FA053EB504466B
:10A90000002000900190029002946A46002144F2D7
:10A910000100FFF78DFF3EBD70B504460D46204691
:10A9200003F07CFB28B12946204603F06BFB002096
:10A9300070BD0520FCE7034609B90E20704712B12F
:10A94000501E104008B10920F8E71960501E988089
:10A9500000209860D86000BFF0E770B504460D464F
:10A96000204603F05BFBA188884205D82946204693
:10A9700003F067FB002070BD0420FCE710B5034620
:10A980000C4600BF0B48807808B9082010BD00BFF6
:10A990000AB90720FAE70BB90720F7E71868007C27
:10A9A00008B10820F2E71968002008744C744A6165
:10A9B00000BFEBE70C34002010B50AF0A7F9002027
:10A9C0000F49087048700B20887000200D490860FE
:10A9D0000D4908700D4908701420FCF7DBFD0621B5
:10A9E0001420FCF7FBFD1420FCF7E0FD00200AF02A
:10A9F00063F90AF05BF906490860002010BD000009
:10AA00000C340020682C0020782C0020792C0020A9
:10AA10006C2C00202DE9F04104460E4617462546D1
:10AA200000BF1048807810B90820BDE8F08100BF51
:10AA30000CB90820F9E7052E01D20720F5E768696F
:10AA400008B90820F1E7687C012801D1304600E010
:10AA5000002080463B464246314628460BF0DAFB52
:10AA6000E3E700000C34002070B50446254600BF23
:10AA70000848807808B9082070BD00BF0CB168692B
:10AA800008B90820F8E700202874022128460BF0B6
:10AA9000F0FBF1E70C3400202DE9F04104460F48AB
:10AAA000077821460E48FFF737FF804697B1002010
:10AAB0000A49087001220B490B4805F081FC054644
:10AAC00000BF2E4626B100BF3046FFF717FF00BF7C
:10AAD00000BF00BF4046BDE8F0810000962C00207A
:10AAE00018350020952C00207C2C00202DE9F04109
:10AAF00088B004460E46174698462B4807601EB994
:10AB0000072008B0BDE8F081B08882B227483168DC
:10AB1000FFF711FF054600BF284600B1F1E700BF6F
:10AB2000B08982B22248B168FFF705FF054600BF31
:10AB3000284600B1E5E700BF20221E496846FBF722
:10AB40009EFC60690690207C08B1012000E0002096
:10AB50008DF814008DF81C80607C08B10E2000E098
:10AB600000208DF81500E0680290A068039020682E
:10AB7000019060680090104A6946104805F0DAFBC1
:10AB8000054600BF284600B1BBE700BF00200C49C6
:10AB900008702068401C28B101220A49074805F0C6
:10ABA0000FFCAEE70020ACE7902C00201835002009
:10ABB00028350020887C0300656B03007C2C002076
:10ABC000962C0020952C00202DE9F04105462946C1
:10ABD0001448FFF7C2FE064606BB134C0027207838
:10ABE0001249085C20B1201D08F0A6FB074608E0CA
:10ABF00020780E49085C20B904F10C0008F050FAE6
:10AC0000074600BF57B90A490648FFF785FE28B92D
:10AC100001220749044805F0F5FB06463046BDE829
:10AC2000F0810000283500207C2C00203C2C0020E6
:10AC3000942C002010B5044620460AF0A9F910BD56
:10AC400070B5044625460E488068B0B1ADB9FEF730
:10AC5000D7FF06460A4800680A4908600848406865
:10AC60004FF0E021C1F804010020054988601EB9B9
:10AC700000BF62B600BF00BF00BF00BF70BD0000D4
:10AC80003835002000E100E0F8B505460C461746CF
:10AC90002088001DB84201D90C20F8BD684679DF34
:10ACA000064600BF304600B1F7E700BF0320218809
:10ACB00068542088401C20801920218868542088EE
:10ACC000401C208020884119BDF800000CF050F98C
:10ACD0002188084420800020DFE770B505460C4637
:10ACE0002068401C28B1206806F0CFF9206806F0E3
:10ACF000F9F86068401C18B10321606806F0CCF8D0
:10AD00002868A169C0F8241500BF617D227D2868EC
:10AD100041EA0203C0F86C3500BFD4E9001228688C
:10AD200007F06FFA207D012814D1A068401C18B1EB
:10AD30000321A06806F0B0F8E068401C28B1E06884
:10AD400006F0A3F9E06806F0CDF8D4E902212868FE
:10AD500007F040FA70BD70B505460C462068401CEF
:10AD600028B1206806F09CF9206806F0C7F86068F2
:10AD7000401C18B10321606806F09BF82868A1699F
:10AD8000C0F8241500BF617D227D286841EA0203D6
:10AD9000C0F86C3500BFD4E90012286807F05EFAED
:10ADA000207D012814D1A068401C18B10321A0689F
:10ADB00006F07FF8E068401C28B1E06806F070F902
:10ADC000E06806F09BF8D4E90221286807F032FA1F
:10ADD00070BD0000002114E00C48D0F810240123BD
:10ADE00008E000BFD0680079884201D1002303E069
:10ADF000D0680268002AF4D100BF0BB10846704742
:10AE0000491C0A29E8DB4FF0FF30F8E7DC36002068
:10AE100010B504F072FDFCF7ABFB10BD2DE9F0415D
:10AE200004460F46154615B90E20BDE8F0810020F6
:10AE3000286000BF0CB90E20F7E700BF00BF2068F4
:10AE400008B90E20F1E700BF00BFE088C11700EB92
:10AE500091718910A0EB810109B10720E5E700BFDE
:10AE6000384600F0BFFAC6B2142E01D10520DCE747
:10AE70002079B04201DC0420D7E7E188206806FB96
:10AE8000010028600020D0E72DE9FC4105468846F6
:10AE90001646002437880020308095F82D0058B1E0
:10AEA0003A463146404600F0B5FA044600BF204617
:10AEB00008B1BDE8FC8100BFA87850B13A463146E0
:10AEC0004046FFF7E1FE044600BF204600B1F0E730
:10AED00000BFE87860B1E97848B23B463246414667
:10AEE00003F035F9044600BF204600B1E1E700BF9A
:10AEF000686868B1696891F900003B46324641468E
:10AF00000BF0D6FD044600BF204600B1D1E700BFDC
:10AF1000288900280EDD43460622022105F108009B
:10AF2000CDE900670CF0ACFB044600BF204600B141
:10AF3000BFE700BF288A00280EDD43460722032111
:10AF400005F11000CDE900670CF09AFB044600BF44
:10AF5000204600B1ADE700BF288B00280EDD434638
:10AF60001522142105F11800CDE900670CF088FBCB
:10AF7000044600BF204600B19BE700BF286A58B1D5
:10AF80003B4632464146286A01F0C1FC044600BFF8
:10AF9000204600B18DE700BF686A58B13B46324693
:10AFA0004146686A04F06EFC044600BF204600B1CA
:10AFB0007FE700BF95F82C0000280BDD3B463246AA
:10AFC000414628460AF026F9044600BF204600B153
:10AFD0006FE700BF287858B13B46324641462846C5
:10AFE00004F020FD044600BF204600B161E700BF29
:10AFF00020465EE7F8B504460E4615460020009050
:10B000002B466A463146204600F008F807460FB93D
:10B010000020F8BDBDF800002044FAE730B5044632
:10B020000D4604B10AB9002030BD002103E0605C88
:10B03000401C084481B21088884203DC481C205C14
:10B04000984201D0A942F2DBA94201DB0020EBE7E4
:10B05000881C1080605C401E80B2E5E780F83010EC
:10B06000704770B504460D4605B10CB90E2070BD91
:10B0700005F1780001F0ECFB08B90720F7E70020A4
:10B08000A0702C2205F17801201DFBF7F8F90020B3
:10B0900084F83000D5F8A4006063D5F8A800A06358
:10B0A0004FF6FF70A4F8480204F50D70C4F844028E
:10B0B00000214FF41470C4F84A12A4F84E1201553E
:10B0C000207810B9FF2084F8540004F15500C4F82A
:10B0D000340294F82400012804D1EE214FF40E70BC
:10B0E000015303E01F214FF40E70015304F50E725B
:10B0F00004F155012846FFF7C7FE064600BF30465B
:10B1000000B1B4E700BF05F13C00F0B104F2431018
:10B110004FF40F71085194F82400012803D1EE2157
:10B12000A4F8401202E01F21A4F840124FF40F705F
:10B13000015904F5107205F13C00FFF7A5FE064623
:10B1400000BF304600B192E705E000214FF40F70D8
:10B150000151A4F84012012151200155208B81B2E8
:10B1600048200153012084F83C0000212164502034
:10B1700001556169616404F13C02002104F154004D
:10B1800072DF064600BF304600B170E700BF012005
:10B19000207030466BE770B504460D462E46208879
:10B1A000102804D0112807D026280FD109E0214605
:10B1B000304608F02BFB0AE02146304608F0D3FC6D
:10B1C00005E02146304608F0A8FE00E000BF00BFC1
:10B1D00070BD704770B504460E46207808B9082047
:10B1E00070BDA67000214FF41470C4F84A12A4F880
:10B1F0004E120155A07910B1A078012809D0E0794C
:10B2000010B1A078012804D0E07970B1A0780228AC
:10B210000BD1606B30B1012084F851020820616BC2
:10B22000884702E0002084F8510231462046FFF7AB
:10B2300055FAA070606BA0B1A078032802D0A07866
:10B2400004280ED1607960B194F8520248B9002008
:10B2500084F85402012084F853020720616B884768
:10B2600002E0002084F85302182104F13C00FBF7AF
:10B270001FF9012084F83C0004F12C0008F042FF83
:10B2800020B194F82C105120015502E001215120E9
:10B29000015594F8240060B104F12C0008F032FF4D
:10B2A00020B194F828105220015502E001215220CB
:10B2B0000155002150200155A078052824D2DFE84F
:10B2C00000F01F030A11180004F13C0120460AF0A7
:10B2D00033F8054619E004F13C0120460AF014F861
:10B2E000054612E004F13C0120460AF037F8054615
:10B2F0000BE004F13C0120460AF05EF8054604E04C
:10B30000002084F8310000E000BF00BFA07898B1B1
:10B3100004F13C0204F15400D4F8441272DF0546F3
:10B320000DB128465CE794F8301094F8540073DFB0
:10B3300005460DB1284653E7606B18B194F831000B
:10B34000616B884700204BE72DE9F041044600BFC0
:10B3500014B90E20BDE8F08100BF1C2221461C4814
:10B36000FBF78DF81B481A490860206860B1206817
:10B370007ADF05460DB12846ECE7164821680A68D1
:10B3800002604968416005E012487BDF05460DB167
:10B390002846DFE7002617E006EB86000E4901EBA2
:10B3A000800700BF4FF6FF70388000BF0B4800EBEE
:10B3B000461078600A4A0021381DFFF7DFFA05467B
:10B3C0000DB10320C6E7761C002EE5D00020C1E7B2
:10B3D000143200202C2C002000320020E03100200C
:10B3E000C171030010B50446204600F005F808B10D
:10B3F000204610BD1420FCE710B50446142C01DBD8
:10B40000002010BD2146024804F02AFCF9E70000A4
:10B41000343200202DE9FC4105460C4617462088B1
:10B420000930B84202D90C20BDE8FC8168466DDFC6
:10B43000064600BF304600B1F6E700BF082021886D
:10B4400068542088401C20801B2021886854208854
:10B45000401C208020882844DDF801100160BDF8E0
:10B46000051081802088801D20809DF80000400804
:10B4700018B900202188685402E00120218868540E
:10B480002088401C20800020CEE700002DE9FC41F0
:10B4900005460F46288821286FD008DC10280FD0D9
:10B4A000112849D012286BD0132868D1A2E0232894
:10B4B00067D03B287DD052287CD05628F5D1C9E0F2
:10B4C0006D496E4A891AC908032242EA01406CA1FB
:10B4D00006F0DAF800BF6DA16F48FDF7A7F96E48D6
:10B4E000FBF703F8064632466B490020FCF7A8FC40
:10B4F00000BF012069490870072000F01FFC0446C6
:10B5000000BF264626B100BF3046FFF7F7F900BF5F
:10B5100000BFA8886249088008460188614804F095
:10B5200083FD044600BF264626B100BF3046FFF724
:10B53000E5F900BF00BF9CE04F49504A891AC9088D
:10B54000032242EA014058A106F09EF800BF5AA12A
:10B550005148FDF76BF95048FAF7C7FF06463246E7
:10B560004D490020FCF76CFC00BF00204B490870DF
:10B570004FF6FF704A4908807BE021E000E077E069
:10B5800000BF3D493D4A891AC908042242EA0140E8
:10B590004DA106F079F8002000900190A8880022C3
:10B5A000694690DF044600BF26463EB100BF3046E4
:10B5B00001E041E02FE0FFF7A1F900BF00BF58E034
:10B5C0002D492E4A891AC908042242EA014043A1A2
:10B5D00006F05AF800200190A88801A98FDF0446E0
:10B5E00000BF264626B100BF3046FFF787F900BFEF
:10B5F00000BF3EE000231A468521294800887FDFEE
:10B60000044600BF264626B100BF3046FFF776F954
:10B6100000BF00BF2DE000231A46194620480088CD
:10B62000B1DF044600BF264626B100BF3046FFF713
:10B6300065F900BF00BF1CE0A888132176DF04462F
:10B6400000BF264626B100BF3046FFF757F900BFBE
:10B6500000BF0EE0A888132176DF044600BF26460F
:10B6600026B100BF3046FFF749F900BF00BF00E038
:10B6700000BF00BFBDE8FC81D489030054890300EA
:10B68000436F6E6E6563746564000000636F6E6E79
:10B690006563740D0A000000E42F0020342D0020A3
:10B6A000362D00209C3D0020446973636F6E6E65EB
:10B6B0006374656400000000646973636F6E6E6597
:10B6C00063740D0A00000000444C452075706461ED
:10B6D000746520726571756573742E005048592029
:10B6E00075706461746520726571756573742E0080
:10B6F00070B505460E462888102802D011282CD196
:10B7000015E01748006860B901F096F9044600BFDB
:10B7100034B11448006818B12046124909688847B6
:10B7200000BF0F480068401C0D49086016E00C4837
:10B730000068401E0A4908600846006860B9FFF7C3
:10B7400002F8044600BF34B10648006818B120462C
:10B7500004490968884700BF00E000BF00BF70BD12
:10B76000282C0020242C002070B504460D4620888B
:10B77000102806D0112808D012280ED0502810D139
:10B7800007E0204607F0D0FF0CE0204608F0D2F991
:10B7900008E0204608F0F2FB04E0204607F0ACFF8A
:10B7A00000E000BF00BF70BD2DE9F04104468846AF
:10B7B000A5882088102804D0112815D01A2847D130
:10B7C00016E009F0F5F9284609F0CEF920B900BFD6
:10B7D0000420FFF793F806E0E07B012803D0294618
:10B7E0001D4804F04CFA33E0284609F005FA2FE032
:10B7F000207A0121B1EB101F01DA012000E00020C6
:10B800000646207A0221B1EB101F01DA012000E088
:10B81000002007468EB129460F48001D04F02FFA7C
:10B820002FB129460C48083004F029FA0FE02946C8
:10B830000948083004F005FA09E029460648001DC9
:10B8400004F0FFF929460448083004F0FAF900BF73
:10B8500000BFBDE8F08100003C32002010B50AF0C6
:10B860007AFD00F026F91621172008F0FDFB00BF35
:10B870000EA11248FCF7DAFF1048FAF736FE04462C
:10B8800022460E490020FCF7DBFA00BF02F0EAFC7A
:10B8900002F08AFD09F00AFDFEF780FF01F074F85E
:10B8A000FEF7B4FF0BF020F910BD00007374616364
:10B8B0006B5F696E697421210D0A0000E42F00207E
:10B8C0002DE9F04385B00446884617461D4600BF63
:10B8D0001CB90E2005B0BDE8F08300BF6A462946BA
:10B8E0006069FFF79BFA064600BF304600B1F1E7FA
:10B8F00000BF4FF6FF70854201D0009808B90520BF
:10B90000E8E70098007808B90820E3E7388820289D
:10B9100001DD0720DEE700200190029003900490F3
:10B92000A088ADF80400CDF81080039701208DF8B1
:10B93000060001A92846AEDF81464846CAE7000056
:10B9400070B58EB004460E46434B0FCB09AD0FC504
:10B950000120089000BF14B90E200EB070BD00BFCA
:10B9600000BF0EB90E20F8E700BF3068A06108A93B
:10B9700009A862DF0546214609A862DF054600BF27
:10B98000284600B1E9E700BF20788DF836004AF676
:10B99000F030ADF83400A21C0DA90120A8DF054647
:10B9A00000BF284600B1D8E700BF20216846FAF75B
:10B9B0007FFD4AF2A250ADF8000020788DF8020019
:10B9C0002020ADF804000120ADF806008DF80C0031
:10B9D0009DF80D0020F0080008308DF80D009DF84E
:10B9E0000D0020F00400001D8DF80D0001208DF8E1
:10B9F00011008DF81200608804F10C02694600F015
:10BA0000CFFD05460DB12846A7E720216846FAF785
:10BA10004FFD4AF2A350ADF8000020788DF80200E7
:10BA20002020ADF804000120ADF806008DF80C00D0
:10BA30009DF80D0020F0100010308DF80D00012051
:10BA40008DF811008DF812008DF813006088221D0A
:10BA5000694600F0A5FD80E7607B030070B50446F1
:10BA60000D4605B104B970BD2E462088102804D0BB
:10BA7000502807D057280FD109E02146304607F05B
:10BA80008BFE0AE02146304608F0A4FA05E0214684
:10BA9000304608F0A9F900E000BF00BF00BFE2E7B0
:10BAA00070B5044620460BF05DFA054605F001002E
:10BAB00070BD38B506F02AFA044600BF254625B108
:10BAC00000BF2846FEF71AFF00BF00BF002000900D
:10BAD0006946012006F03CF8044600BF254625B122
